{
  "contractName": "JobManager",
  "abi": [
    {
      "constant": true,
      "inputs": [
        {
          "name": "",
          "type": "uint256"
        }
      ],
      "name": "jobs",
      "outputs": [
        {
          "name": "gameType",
          "type": "uint8"
        },
        {
          "name": "imageLink",
          "type": "string"
        },
        {
          "name": "baseUrl",
          "type": "string"
        },
        {
          "name": "query",
          "type": "string"
        },
        {
          "name": "bounty",
          "type": "uint256"
        },
        {
          "name": "index",
          "type": "uint16"
        },
        {
          "name": "numClaimers",
          "type": "uint8"
        },
        {
          "name": "numAnswered",
          "type": "uint8"
        }
      ],
      "payable": false,
      "stateMutability": "view",
      "type": "function"
    },
    {
      "constant": true,
      "inputs": [],
      "name": "currentJob",
      "outputs": [
        {
          "name": "",
          "type": "uint16"
        }
      ],
      "payable": false,
      "stateMutability": "view",
      "type": "function"
    },
    {
      "constant": true,
      "inputs": [
        {
          "name": "",
          "type": "address"
        }
      ],
      "name": "labellers",
      "outputs": [
        {
          "name": "set",
          "type": "bool"
        },
        {
          "name": "streak",
          "type": "uint16"
        },
        {
          "name": "latestJob",
          "type": "uint16"
        },
        {
          "name": "amountEarned",
          "type": "uint256"
        }
      ],
      "payable": false,
      "stateMutability": "view",
      "type": "function"
    },
    {
      "constant": true,
      "inputs": [],
      "name": "owner",
      "outputs": [
        {
          "name": "",
          "type": "address"
        }
      ],
      "payable": false,
      "stateMutability": "view",
      "type": "function"
    },
    {
      "constant": true,
      "inputs": [],
      "name": "numJobs",
      "outputs": [
        {
          "name": "",
          "type": "uint16"
        }
      ],
      "payable": false,
      "stateMutability": "view",
      "type": "function"
    },
    {
      "inputs": [],
      "payable": true,
      "stateMutability": "payable",
      "type": "constructor"
    },
    {
      "constant": true,
      "inputs": [
        {
          "name": "jobSetIndex",
          "type": "uint64"
        },
        {
          "name": "person",
          "type": "address"
        }
      ],
      "name": "jobStatus",
      "outputs": [
        {
          "name": "",
          "type": "uint8"
        }
      ],
      "payable": false,
      "stateMutability": "view",
      "type": "function"
    },
    {
      "constant": false,
      "inputs": [
        {
          "name": "imageLink",
          "type": "string"
        },
        {
          "name": "query",
          "type": "string"
        },
        {
          "name": "gameType",
          "type": "uint8"
        },
        {
          "name": "bounty",
          "type": "uint256"
        }
      ],
      "name": "addJob",
      "outputs": [
        {
          "name": "",
          "type": "uint16"
        }
      ],
      "payable": false,
      "stateMutability": "nonpayable",
      "type": "function"
    },
    {
      "constant": false,
      "inputs": [],
      "name": "findJob",
      "outputs": [
        {
          "name": "",
          "type": "uint16"
        }
      ],
      "payable": false,
      "stateMutability": "nonpayable",
      "type": "function"
    },
    {
      "constant": false,
      "inputs": [
        {
          "name": "jobIndex",
          "type": "uint16"
        }
      ],
      "name": "claimJob",
      "outputs": [
        {
          "name": "",
          "type": "bool"
        }
      ],
      "payable": false,
      "stateMutability": "nonpayable",
      "type": "function"
    },
    {
      "constant": false,
      "inputs": [
        {
          "name": "jobIndex",
          "type": "uint16"
        },
        {
          "name": "answer",
          "type": "uint256"
        }
      ],
      "name": "answerJob",
      "outputs": [
        {
          "name": "",
          "type": "uint256"
        }
      ],
      "payable": false,
      "stateMutability": "nonpayable",
      "type": "function"
    },
    {
      "constant": false,
      "inputs": [
        {
          "name": "jobIndex",
          "type": "uint16"
        }
      ],
      "name": "settle",
      "outputs": [
        {
          "name": "",
          "type": "bool"
        }
      ],
      "payable": false,
      "stateMutability": "nonpayable",
      "type": "function"
    },
    {
      "constant": false,
      "inputs": [],
      "name": "withdraw",
      "outputs": [
        {
          "name": "",
          "type": "bool"
        }
      ],
      "payable": false,
      "stateMutability": "nonpayable",
      "type": "function"
    },
    {
      "constant": false,
      "inputs": [
        {
          "name": "jobIndex",
          "type": "uint16"
        },
        {
          "name": "answer",
          "type": "uint256"
        }
      ],
      "name": "claimAnswerJob",
      "outputs": [
        {
          "name": "",
          "type": "uint256"
        }
      ],
      "payable": false,
      "stateMutability": "nonpayable",
      "type": "function"
    },
    {
      "constant": false,
      "inputs": [
        {
          "name": "addr",
          "type": "address"
        }
      ],
      "name": "getStreak",
      "outputs": [
        {
          "name": "",
          "type": "uint16"
        }
      ],
      "payable": false,
      "stateMutability": "nonpayable",
      "type": "function"
    },
    {
      "constant": false,
      "inputs": [
        {
          "name": "jobIndex",
          "type": "uint16"
        }
      ],
      "name": "getNum",
      "outputs": [
        {
          "name": "",
          "type": "uint8"
        }
      ],
      "payable": false,
      "stateMutability": "nonpayable",
      "type": "function"
    },
    {
      "constant": true,
      "inputs": [],
      "name": "getBalance",
      "outputs": [
        {
          "name": "",
          "type": "uint256"
        }
      ],
      "payable": false,
      "stateMutability": "view",
      "type": "function"
    }
  ],
  "bytecode": "0x608060405260008060006101000a81548161ffff021916908361ffff16021790555060008060026101000a81548161ffff021916908361ffff16021790555033600360006101000a81548173ffffffffffffffffffffffffffffffffffffffff021916908373ffffffffffffffffffffffffffffffffffffffff160217905550612c258061008e6000396000f3006080604052600436106100e6576000357c0100000000000000000000000000000000000000000000000000000000900463ffffffff1680631152133a146100eb57806312065fe014610136578063180aedf314610161578063291fc33c1461031c5780633ccfd60b1461036b57806345bb9c0f1461039a5780635eeadb0d146103e957806368740d75146104485780636946ea25146104b95780636975fc23146104ec5780636f052369146105355780638da5cb5b146105b55780639212051c1461060c578063af7df8991461063f578063d97934ae14610688578063de9ae40a146106bb575b600080fd5b3480156100f757600080fd5b5061011a600480360381019080803561ffff16906020019092919050505061079d565b604051808260ff1660ff16815260200191505060405180910390f35b34801561014257600080fd5b5061014b6107d8565b6040518082815260200191505060405180910390f35b34801561016d57600080fd5b5061018c600480360381019080803590602001909291905050506107f7565b604051808960ff1660ff1681526020018060200180602001806020018881526020018761ffff1661ffff1681526020018660ff1660ff1681526020018560ff1660ff16815260200184810384528b818151815260200191508051906020019080838360005b8381101561020c5780820151818401526020810190506101f1565b50505050905090810190601f1680156102395780820380516001836020036101000a031916815260200191505b5084810383528a818151815260200191508051906020019080838360005b83811015610272578082015181840152602081019050610257565b50505050905090810190601f16801561029f5780820380516001836020036101000a031916815260200191505b50848103825289818151815260200191508051906020019080838360005b838110156102d85780820151818401526020810190506102bd565b50505050905090810190601f1680156103055780820380516001836020036101000a031916815260200191505b509b50505050505050505050505060405180910390f35b34801561032857600080fd5b50610355600480360381019080803561ffff16906020019092919080359060200190929190505050610a4b565b6040518082815260200191505060405180910390f35b34801561037757600080fd5b50610380610f16565b604051808215151515815260200191505060405180910390f35b3480156103a657600080fd5b506103d3600480360381019080803561ffff1690602001909291908035906020019092919050505061103d565b6040518082815260200191505060405180910390f35b3480156103f557600080fd5b5061042a600480360381019080803573ffffffffffffffffffffffffffffffffffffffff16906020019092919050505061105b565b604051808261ffff1661ffff16815260200191505060405180910390f35b34801561045457600080fd5b5061049d600480360381019080803567ffffffffffffffff169060200190929190803573ffffffffffffffffffffffffffffffffffffffff1690602001909291905050506110b5565b604051808260ff1660ff16815260200191505060405180910390f35b3480156104c557600080fd5b506104ce611134565b604051808261ffff1661ffff16815260200191505060405180910390f35b3480156104f857600080fd5b5061051b600480360381019080803561ffff169060200190929190505050611148565b604051808215151515815260200191505060405180910390f35b34801561054157600080fd5b50610576600480360381019080803573ffffffffffffffffffffffffffffffffffffffff1690602001909291905050506116dd565b60405180851515151581526020018461ffff1661ffff1681526020018361ffff1661ffff16815260200182815260200194505050505060405180910390f35b3480156105c157600080fd5b506105ca611736565b604051808273ffffffffffffffffffffffffffffffffffffffff1673ffffffffffffffffffffffffffffffffffffffff16815260200191505060405180910390f35b34801561061857600080fd5b5061062161175c565b604051808261ffff1661ffff16815260200191505060405180910390f35b34801561064b57600080fd5b5061066e600480360381019080803561ffff16906020019092919050505061176f565b604051808215151515815260200191505060405180910390f35b34801561069457600080fd5b5061069d611dea565b604051808261ffff1661ffff16815260200191505060405180910390f35b3480156106c757600080fd5b5061077f600480360381019080803590602001908201803590602001908080601f0160208091040260200160405190810160405280939291908181526020018383808284378201915050505050509192919290803590602001908201803590602001908080601f0160208091040260200160405190810160405280939291908181526020018383808284378201915050505050509192919290803560ff16906020019092919080359060200190929190505050611fec565b604051808261ffff1661ffff16815260200191505060405180910390f35b600060018261ffff168154811015156107b257fe5b90600052602060002090600b020160070160019054906101000a900460ff169050919050565b60003073ffffffffffffffffffffffffffffffffffffffff1631905090565b60018181548110151561080657fe5b90600052602060002090600b02016000915090508060000160009054906101000a900460ff1690806001018054600181600116156101000203166002900480601f0160208091040260200160405190810160405280929190818152602001828054600181600116156101000203166002900480156108c55780601f1061089a576101008083540402835291602001916108c5565b820191906000526020600020905b8154815290600101906020018083116108a857829003601f168201915b505050505090806002018054600181600116156101000203166002900480601f0160208091040260200160405190810160405280929190818152602001828054600181600116156101000203166002900480156109635780601f1061093857610100808354040283529160200191610963565b820191906000526020600020905b81548152906001019060200180831161094657829003601f168201915b505050505090806003018054600181600116156101000203166002900480601f016020809104026020016040519081016040528092919081815260200182805460018160011615610100020316600290048015610a015780601f106109d657610100808354040283529160200191610a01565b820191906000526020600020905b8154815290600101906020018083116109e457829003601f168201915b5050505050908060040154908060050160009054906101000a900461ffff16908060070160009054906101000a900460ff16908060070160019054906101000a900460ff16905088565b60008060018461ffff16815481101515610a6157fe5b90600052602060002090600b020161012060405190810160405290816000820160009054906101000a900460ff1660ff1660ff168152602001600182018054600181600116156101000203166002900480601f016020809104026020016040519081016040528092919081815260200182805460018160011615610100020316600290048015610b325780601f10610b0757610100808354040283529160200191610b32565b820191906000526020600020905b815481529060010190602001808311610b1557829003601f168201915b50505050508152602001600282018054600181600116156101000203166002900480601f016020809104026020016040519081016040528092919081815260200182805460018160011615610100020316600290048015610bd45780601f10610ba957610100808354040283529160200191610bd4565b820191906000526020600020905b815481529060010190602001808311610bb757829003601f168201915b50505050508152602001600382018054600181600116156101000203166002900480601f016020809104026020016040519081016040528092919081815260200182805460018160011615610100020316600290048015610c765780601f10610c4b57610100808354040283529160200191610c76565b820191906000526020600020905b815481529060010190602001808311610c5957829003601f168201915b50505050508152602001600482015481526020016005820160009054906101000a900461ffff1661ffff1661ffff16815260200160068201805480602002602001604051908101604052809291908181526020018280548015610d2e57602002820191906000526020600020905b8160009054906101000a900473ffffffffffffffffffffffffffffffffffffffff1673ffffffffffffffffffffffffffffffffffffffff1681526020019060010190808311610ce4575b505050505081526020016007820160009054906101000a900460ff1660ff1660ff1681526020016007820160019054906101000a900460ff1660ff1660ff1681525050336000600260008373ffffffffffffffffffffffffffffffffffffffff1673ffffffffffffffffffffffffffffffffffffffff16815260200190815260200160002060010160008460a0015161ffff1667ffffffffffffffff16815260200190815260200160002060009054906101000a900460ff1660ff1614151515610df757600080fd5b60018661ffff16815481101515610e0a57fe5b90600052602060002090600b0201925060028060003373ffffffffffffffffffffffffffffffffffffffff1673ffffffffffffffffffffffffffffffffffffffff16815260200190815260200160002060010160008861ffff1667ffffffffffffffff16815260200190815260200160002060006101000a81548160ff021916908360ff160217905550848360080160003373ffffffffffffffffffffffffffffffffffffffff1673ffffffffffffffffffffffffffffffffffffffff1681526020019081526020016000208190555060018360070160018282829054906101000a900460ff160192506101000a81548160ff021916908360ff16021790555084935050505092915050565b600080600260003373ffffffffffffffffffffffffffffffffffffffff1673ffffffffffffffffffffffffffffffffffffffff16815260200190815260200160002060030154111515610f6857600080fd5b3373ffffffffffffffffffffffffffffffffffffffff166108fc600260003373ffffffffffffffffffffffffffffffffffffffff1673ffffffffffffffffffffffffffffffffffffffff168152602001908152602001600020600301549081150290604051600060405180830381858888f1935050505015611035576000600260003373ffffffffffffffffffffffffffffffffffffffff1673ffffffffffffffffffffffffffffffffffffffff168152602001908152602001600020600301819055506001905061103a565b600090505b90565b60006110488361176f565b506110538383610a4b565b905092915050565b6000600260008373ffffffffffffffffffffffffffffffffffffffff1673ffffffffffffffffffffffffffffffffffffffff16815260200190815260200160002060000160019054906101000a900461ffff169050919050565b6000600260008373ffffffffffffffffffffffffffffffffffffffff1673ffffffffffffffffffffffffffffffffffffffff16815260200190815260200160002060010160008467ffffffffffffffff1667ffffffffffffffff16815260200190815260200160002060009054906101000a900460ff16905092915050565b600060029054906101000a900461ffff1681565b60008060008060018561ffff1681548110151561116157fe5b90600052602060002090600b020161012060405190810160405290816000820160009054906101000a900460ff1660ff1660ff168152602001600182018054600181600116156101000203166002900480601f0160208091040260200160405190810160405280929190818152602001828054600181600116156101000203166002900480156112325780601f1061120757610100808354040283529160200191611232565b820191906000526020600020905b81548152906001019060200180831161121557829003601f168201915b50505050508152602001600282018054600181600116156101000203166002900480601f0160208091040260200160405190810160405280929190818152602001828054600181600116156101000203166002900480156112d45780601f106112a9576101008083540402835291602001916112d4565b820191906000526020600020905b8154815290600101906020018083116112b757829003601f168201915b50505050508152602001600382018054600181600116156101000203166002900480601f0160208091040260200160405190810160405280929190818152602001828054600181600116156101000203166002900480156113765780601f1061134b57610100808354040283529160200191611376565b820191906000526020600020905b81548152906001019060200180831161135957829003601f168201915b50505050508152602001600482015481526020016005820160009054906101000a900461ffff1661ffff1661ffff1681526020016006820180548060200260200160405190810160405280929190818152602001828054801561142e57602002820191906000526020600020905b8160009054906101000a900473ffffffffffffffffffffffffffffffffffffffff1673ffffffffffffffffffffffffffffffffffffffff16815260200190600101908083116113e4575b505050505081526020016007820160009054906101000a900460ff1660ff1660ff1681526020016007820160019054906101000a900460ff1660ff1660ff1681525050806000015160ff1681610100015160ff1614151561148e57600080fd5b60018661ffff168154811015156114a157fe5b90600052602060002090600b020193508360090160003373ffffffffffffffffffffffffffffffffffffffff1673ffffffffffffffffffffffffffffffffffffffff16815260200190815260200160002060009054906101000a900460ff1615151561150c57600080fd5b60028460000160009054906101000a900460ff1660ff1614151561152f57600080fd5b6115388661226b565b925083600a0160003373ffffffffffffffffffffffffffffffffffffffff1673ffffffffffffffffffffffffffffffffffffffff168152602001908152602001600020549150821561166b5761158e86336128e3565b83600a0160003373ffffffffffffffffffffffffffffffffffffffff1673ffffffffffffffffffffffffffffffffffffffff16815260200190815260200160002054600260003373ffffffffffffffffffffffffffffffffffffffff1673ffffffffffffffffffffffffffffffffffffffff16815260200190815260200160002060030160008282540192505081905550600084600a0160003373ffffffffffffffffffffffffffffffffffffffff1673ffffffffffffffffffffffffffffffffffffffff16815260200190815260200160002081905550611676565b61167586336128e3565b5b60018460090160003373ffffffffffffffffffffffffffffffffffffffff1673ffffffffffffffffffffffffffffffffffffffff16815260200190815260200160002060006101000a81548160ff0219169083151502179055506001945050505050919050565b60026020528060005260406000206000915090508060000160009054906101000a900460ff16908060000160019054906101000a900461ffff16908060020160009054906101000a900461ffff16908060030154905084565b600360009054906101000a900473ffffffffffffffffffffffffffffffffffffffff1681565b6000809054906101000a900461ffff1681565b60008060018361ffff1681548110151561178557fe5b90600052602060002090600b020161012060405190810160405290816000820160009054906101000a900460ff1660ff1660ff168152602001600182018054600181600116156101000203166002900480601f0160208091040260200160405190810160405280929190818152602001828054600181600116156101000203166002900480156118565780601f1061182b57610100808354040283529160200191611856565b820191906000526020600020905b81548152906001019060200180831161183957829003601f168201915b50505050508152602001600282018054600181600116156101000203166002900480601f0160208091040260200160405190810160405280929190818152602001828054600181600116156101000203166002900480156118f85780601f106118cd576101008083540402835291602001916118f8565b820191906000526020600020905b8154815290600101906020018083116118db57829003601f168201915b50505050508152602001600382018054600181600116156101000203166002900480601f01602080910402602001604051908101604052809291908181526020018280546001816001161561010002031660029004801561199a5780601f1061196f5761010080835404028352916020019161199a565b820191906000526020600020905b81548152906001019060200180831161197d57829003601f168201915b50505050508152602001600482015481526020016005820160009054906101000a900461ffff1661ffff1661ffff16815260200160068201805480602002602001604051908101604052809291908181526020018280548015611a5257602002820191906000526020600020905b8160009054906101000a900473ffffffffffffffffffffffffffffffffffffffff1673ffffffffffffffffffffffffffffffffffffffff1681526020019060010190808311611a08575b505050505081526020016007820160009054906101000a900460ff1660ff1660ff1681526020016007820160019054906101000a900460ff1660ff1660ff1681525050806000015160ff168160e0015160ff16101515611ab157600080fd5b60018461ffff16815481101515611ac457fe5b90600052602060002090600b02019150600260003373ffffffffffffffffffffffffffffffffffffffff1673ffffffffffffffffffffffffffffffffffffffff16815260200190815260200160002060000160009054906101000a900460ff161515611c0d57608060405190810160405280600115158152602001600061ffff168152602001600061ffff1681526020016000815250600260003373ffffffffffffffffffffffffffffffffffffffff1673ffffffffffffffffffffffffffffffffffffffff16815260200190815260200160002060008201518160000160006101000a81548160ff02191690831515021790555060208201518160000160016101000a81548161ffff021916908361ffff16021790555060408201518160020160006101000a81548161ffff021916908361ffff160217905550606082015181600301559050505b6001600260003373ffffffffffffffffffffffffffffffffffffffff1673ffffffffffffffffffffffffffffffffffffffff16815260200190815260200160002060010160008661ffff1667ffffffffffffffff16815260200190815260200160002060006101000a81548160ff021916908360ff16021790555083600260003373ffffffffffffffffffffffffffffffffffffffff1673ffffffffffffffffffffffffffffffffffffffff16815260200190815260200160002060020160006101000a81548161ffff021916908361ffff160217905550816006013390806001815401808255809150509060018203906000526020600020016000909192909190916101000a81548173ffffffffffffffffffffffffffffffffffffffff021916908373ffffffffffffffffffffffffffffffffffffffff1602179055505060018260070160008282829054906101000a900460ff160192506101000a81548160ff021916908360ff1602179055508160000160009054906101000a900460ff1660ff168260070160009054906101000a900460ff1660ff161415611ddf576001600060028282829054906101000a900461ffff160192506101000a81548161ffff021916908361ffff1602179055505b600192505050919050565b6000806000336000809054906101000a900461ffff1661ffff16600260008373ffffffffffffffffffffffffffffffffffffffff1673ffffffffffffffffffffffffffffffffffffffff16815260200190815260200160002060020160009054906101000a900461ffff1661ffff1614151515611e6657600080fd5b600260003373ffffffffffffffffffffffffffffffffffffffff1673ffffffffffffffffffffffffffffffffffffffff16815260200190815260200160002060020160009054906101000a900461ffff16925060016000809054906101000a900461ffff160361ffff168361ffff161415611ef2576000809054906101000a900461ffff169350611fe6565b600060029054906101000a900461ffff169150600060029054906101000a900461ffff1661ffff168361ffff161115611f29578291505b5b6000600260003373ffffffffffffffffffffffffffffffffffffffff1673ffffffffffffffffffffffffffffffffffffffff16815260200190815260200160002060010160008461ffff1667ffffffffffffffff16815260200190815260200160002060009054906101000a900460ff1660ff16141515611fb057600182019150611f2a565b60018261ffff16815481101515611fc357fe5b90600052602060002090600b020160050160009054906101000a900461ffff1693505b50505090565b6000813073ffffffffffffffffffffffffffffffffffffffff1631808210151561201557600080fd5b8360008111151561202557600080fd5b6001610120604051908101604052808860ff1681526020018a81526020016040805190810160405280601481526020017f68747470733a2f2f74696e7975726c2e636f6d2f00000000000000000000000081525081526020018981526020018781526020016000809054906101000a900461ffff1661ffff16815260200160006040519080825280602002602001820160405280156120d35781602001602082028038833980820191505090505b508152602001600060ff168152602001600060ff168152509080600181540180825580915050906001820390600052602060002090600b02016000909192909190915060008201518160000160006101000a81548160ff021916908360ff1602179055506020820151816001019080519060200190612153929190612a87565b506040820151816002019080519060200190612170929190612a87565b50606082015181600301908051906020019061218d929190612a87565b506080820151816004015560a08201518160050160006101000a81548161ffff021916908361ffff16021790555060c08201518160060190805190602001906121d7929190612b07565b5060e08201518160070160006101000a81548160ff021916908360ff1602179055506101008201518160070160016101000a81548160ff021916908360ff16021790555050505060016000808282829054906101000a900461ffff160192506101000a81548161ffff021916908361ffff1602179055506000809054906101000a900461ffff169350505050949350505050565b600080600080600060018661ffff1681548110151561228657fe5b90600052602060002090600b020161012060405190810160405290816000820160009054906101000a900460ff1660ff1660ff168152602001600182018054600181600116156101000203166002900480601f0160208091040260200160405190810160405280929190818152602001828054600181600116156101000203166002900480156123575780601f1061232c57610100808354040283529160200191612357565b820191906000526020600020905b81548152906001019060200180831161233a57829003601f168201915b50505050508152602001600282018054600181600116156101000203166002900480601f0160208091040260200160405190810160405280929190818152602001828054600181600116156101000203166002900480156123f95780601f106123ce576101008083540402835291602001916123f9565b820191906000526020600020905b8154815290600101906020018083116123dc57829003601f168201915b50505050508152602001600382018054600181600116156101000203166002900480601f01602080910402602001604051908101604052809291908181526020018280546001816001161561010002031660029004801561249b5780601f106124705761010080835404028352916020019161249b565b820191906000526020600020905b81548152906001019060200180831161247e57829003601f168201915b50505050508152602001600482015481526020016005820160009054906101000a900461ffff1661ffff1661ffff1681526020016006820180548060200260200160405190810160405280929190818152602001828054801561255357602002820191906000526020600020905b8160009054906101000a900473ffffffffffffffffffffffffffffffffffffffff1673ffffffffffffffffffffffffffffffffffffffff1681526020019060010190808311612509575b505050505081526020016007820160009054906101000a900460ff1660ff1660ff1681526020016007820160019054906101000a900460ff1660ff1660ff1681525050806000015160ff1681610100015160ff161415156125b357600080fd5b60018761ffff168154811015156125c657fe5b90600052602060002090600b020194508460090160003373ffffffffffffffffffffffffffffffffffffffff1673ffffffffffffffffffffffffffffffffffffffff16815260200190815260200160002060009054906101000a900460ff1615151561263157600080fd5b6000935084600801600086600601600181548110151561264d57fe5b9060005260206000200160009054906101000a900473ffffffffffffffffffffffffffffffffffffffff1673ffffffffffffffffffffffffffffffffffffffff1673ffffffffffffffffffffffffffffffffffffffff168152602001908152602001600020548560080160008760060160008154811015156126cb57fe5b9060005260206000200160009054906101000a900473ffffffffffffffffffffffffffffffffffffffff1673ffffffffffffffffffffffffffffffffffffffff1673ffffffffffffffffffffffffffffffffffffffff16815260200190815260200160002054189250600091505b600861ffff168261ffff16101561277d57600060028481151561275857fe5b061415612770576001840193506001839060020a9050505b8180600101925050612739565b8363ffffffff16600861ffff16866004015481151561279857fe5b040285600a0160008760060160008154811015156127b257fe5b9060005260206000200160009054906101000a900473ffffffffffffffffffffffffffffffffffffffff1673ffffffffffffffffffffffffffffffffffffffff1673ffffffffffffffffffffffffffffffffffffffff168152602001908152602001600020819055508363ffffffff16600861ffff16866004015481151561283657fe5b040285600a01600087600601600181548110151561285057fe5b9060005260206000200160009054906101000a900473ffffffffffffffffffffffffffffffffffffffff1673ffffffffffffffffffffffffffffffffffffffff1673ffffffffffffffffffffffffffffffffffffffff168152602001908152602001600020819055506002600861ffff168115156128ca57fe5b0461ffff168463ffffffff161195505050505050919050565b600060018361ffff168154811015156128f857fe5b90600052602060002090600b020190508060090160003373ffffffffffffffffffffffffffffffffffffffff1673ffffffffffffffffffffffffffffffffffffffff16815260200190815260200160002060009054906101000a900460ff1615151561296357600080fd5b600081600a0160008473ffffffffffffffffffffffffffffffffffffffff1673ffffffffffffffffffffffffffffffffffffffff168152602001908152602001600020541115612a23576001600260008473ffffffffffffffffffffffffffffffffffffffff1673ffffffffffffffffffffffffffffffffffffffff16815260200190815260200160002060000160018282829054906101000a900461ffff160192506101000a81548161ffff021916908361ffff160217905550612a82565b6000600260008473ffffffffffffffffffffffffffffffffffffffff1673ffffffffffffffffffffffffffffffffffffffff16815260200190815260200160002060000160016101000a81548161ffff021916908361ffff1602179055505b505050565b828054600181600116156101000203166002900490600052602060002090601f016020900481019282601f10612ac857805160ff1916838001178555612af6565b82800160010185558215612af6579182015b82811115612af5578251825591602001919060010190612ada565b5b509050612b039190612b91565b5090565b828054828255906000526020600020908101928215612b80579160200282015b82811115612b7f5782518260006101000a81548173ffffffffffffffffffffffffffffffffffffffff021916908373ffffffffffffffffffffffffffffffffffffffff16021790555091602001919060010190612b27565b5b509050612b8d9190612bb6565b5090565b612bb391905b80821115612baf576000816000905550600101612b97565b5090565b90565b612bf691905b80821115612bf257600081816101000a81549073ffffffffffffffffffffffffffffffffffffffff021916905550600101612bbc565b5090565b905600a165627a7a723058202ea35c4e52e2375d244826c6b7be7347f52cee7e5b4e10b9dac63e608e5b45bf0029",
  "source": "pragma solidity ^0.4.17;\n\ncontract JobManager {\n    uint16 constant batchSize = 8;\n\n    struct Labeller {\n        bool set;\n        uint16 streak;\n        mapping(uint64 => uint8) jobs;\n        uint16 latestJob;\n        uint amountEarned;\n    }\n\n    struct Job {\n        uint8 gameType;\n        string imageLink;\n        string baseUrl;\n        string query;\n        uint bounty;\n        uint16 index;\n        address[] agents;\n        uint8 numClaimers;\n        uint8 numAnswered;\n        mapping (address => uint256) addrToAns;\n        mapping (address => bool) settled;\n        mapping (address => uint) pendingWithdrawals;\n    }\n\n    // necessary global variables\n    uint16 public numJobs = 0;\n    uint16 public currentJob = 0;\n    Job[] public jobs;\n    mapping (address => Labeller) public labellers;\n    address public owner;\n\n    modifier sufficientFunds(uint bounty, uint available) { require(bounty < available); _; }\n    modifier notFree(uint bounty) { require(bounty > 0); _;}\n    modifier availableJob(Job job) { require(job.numClaimers < job.gameType); _; }\n    modifier workLeftFor(address addr) {require(!(labellers[addr].latestJob == numJobs)); _; }\n    modifier hasBeenAssigned(Job job, address addr){\n        require(labellers[addr].jobs[job.index] != 0);\n         _;\n    }\n    modifier answered(Job job) {require(job.numAnswered == job.gameType); _;}\n\n    constructor() public payable {\n        owner = msg.sender;\n    }\n\n\n    // Functions for job CRUD\n\n    function jobStatus(uint64 jobSetIndex, address person) view returns(uint8){\n        return labellers[person].jobs[jobSetIndex];\n    }\n\n    // function addJob that creates a job and adds it to job array\n    function addJob(\n        string imageLink,\n        string query,\n        uint8 gameType,\n        uint bounty)\n        sufficientFunds(bounty, address(this).balance)\n        notFree(bounty)\n        public\n        returns (uint16)\n    {\n        jobs.push(Job({\n            gameType: gameType,\n            imageLink: imageLink,\n            baseUrl: \"https://tinyurl.com/\",\n            query: query,\n            bounty: bounty,\n            index: numJobs,\n            agents: new address[](0),\n            numClaimers: 0,\n            numAnswered: 0\n        }));\n        numJobs += 1;\n        return numJobs;\n    }\n\n    // function that finds the next eligible job someone can take\n    function findJob()\n        workLeftFor(msg.sender)\n        public\n        returns (uint16)\n    {\n        // Returns the sender's address if out of jobs.\n        uint16 labellerLatestJob = labellers[msg.sender].latestJob;\n        if(labellerLatestJob == numJobs - 1){\n            return numJobs;\n        }\n        uint16 jobSearch = currentJob;\n        if(labellerLatestJob > currentJob){\n            jobSearch = labellerLatestJob;\n        }\n        while (labellers[msg.sender].jobs[jobSearch] != 0){\n            jobSearch += 1;\n        }\n        return jobs[jobSearch].index;\n    }\n\n    function claimJob(uint16 jobIndex)\n        availableJob(jobs[jobIndex])\n        public\n        returns (bool)\n    {\n        Job storage job = jobs[jobIndex];\n\n        // upsert labeller (used to be function)\n        if (!(labellers[msg.sender].set)){\n            labellers[msg.sender] = Labeller({set: true, streak: 0, latestJob: 0, amountEarned: 0});\n        }\n\n        labellers[msg.sender].jobs[jobIndex] = 1;\n        labellers[msg.sender].latestJob = jobIndex;\n\n        job.agents.push(msg.sender);\n        job.numClaimers += 1;\n\n        if (job.numClaimers == job.gameType){\n            currentJob += 1;\n        }\n\n        return true;\n    }\n\n    function answerJob(uint16 jobIndex, uint256 answer)\n        public\n        hasBeenAssigned(jobs[jobIndex], msg.sender)\n        returns (uint256)\n    {\n        Job storage job = jobs[jobIndex];\n        labellers[msg.sender].jobs[jobIndex] = 2;\n        job.addrToAns[msg.sender] = answer;\n        job.numAnswered += 1;\n        return answer;\n    }\n\n    // settlement of payment\n    function settle(uint16 jobIndex)\n        answered(jobs[jobIndex])\n        public\n        returns (bool)\n    {\n        Job storage job = jobs[jobIndex];\n        require(!(job.settled[msg.sender]));\n        require(job.gameType == 2);\n        bool isPaid;\n        isPaid = esp(jobIndex);\n\n        uint amount = job.pendingWithdrawals[msg.sender];\n        if (isPaid){\n            updateStreak(jobIndex, msg.sender);\n            labellers[msg.sender].amountEarned += job.pendingWithdrawals[msg.sender];\n            job.pendingWithdrawals[msg.sender] = 0;\n        }\n        else{\n            updateStreak(jobIndex, msg.sender);\n        }\n        job.settled[msg.sender] = true;\n        return true;\n    }\n\n    function withdraw()\n        public\n        returns (bool)\n    {\n        require(labellers[msg.sender].amountEarned > 0);\n        if (msg.sender.send(labellers[msg.sender].amountEarned)){\n            labellers[msg.sender].amountEarned = 0;\n            return true;\n        }\n        else {\n            return false;\n        }\n    }\n\n    // The Games\n\n    function esp(uint16 jobIndex)\n        answered(jobs[jobIndex])\n        private\n        returns (bool)\n    {\n        Job storage job = jobs[jobIndex];\n        require(!(job.settled[msg.sender]));\n\n        uint32 numCorrect = 0;\n        uint256 bitString = job.addrToAns[job.agents[0]] ^ job.addrToAns[job.agents[1]];\n        for (uint16 i = 0; i < batchSize; i++){\n            if (bitString % 2 == 0){\n                numCorrect += 1;\n                bitString >> 1;\n            }\n        }\n\n        job.pendingWithdrawals[job.agents[0]] = job.bounty/batchSize * numCorrect;\n        job.pendingWithdrawals[job.agents[1]] = job.bounty/batchSize * numCorrect;\n\n        return (numCorrect > batchSize / 2);\n    }\n    // Helper functions\n\n    function updateStreak(uint16 jobIndex, address addr) private\n    {\n        Job storage job = jobs[jobIndex];\n        require(!(job.settled[msg.sender]));\n\n        if (job.pendingWithdrawals[addr] > 0){\n            labellers[addr].streak += 1;\n        }\n        else{\n            labellers[addr].streak = 0;\n        }\n    }\n\n    function claimAnswerJob(uint16 jobIndex, uint256 answer)\n        public\n        returns(uint256)\n    {\n        claimJob(jobIndex);\n        return answerJob(jobIndex, answer);\n    }\n\n    // Helpful Getters\n\n    function getStreak(address addr) public returns (uint16){\n        return labellers[addr].streak;\n    }\n\n    function getNum(uint16 jobIndex) public returns (uint8){\n        return jobs[jobIndex].numAnswered;\n    }\n\n    function getBalance() public view returns (uint){\n        return address(this).balance;\n    }\n}\n",
  "sourcePath": "/Users/jeffreyw128/Desktop/prim/contracts/JobManager.sol",
  "compiler": {
    "name": "solc",
    "version": "0.4.23+commit.124ca40d.Emscripten.clang"
  },
  "schemaVersion": "2.0.0",
  "updatedAt": "2018-05-05T14:16:39.537Z"
}